:080000000C943C000C9400007C
:100008000C9400000C9400000C9400000C94000068
:100018000C9400000C9400000C9400000C94000058
:100028000C9400000C9400000C9400000C94000048
:100038000C9400000C9400000C9400000C94D00068
:100048000C9400000C9400000C940000F8000000D0
:100058001027E80364000A000100001000011000E6
:10006800010001007A01540002007B0156000000E3
:10007800F894EE27ECBBF1E0FBBFEBBFE5BFF8E17E
:10008800F1BDE1BD8DE0A2E0BB27ED938A95E9F7CC
:1000980080E094E0A0E6ED930197E9F7EAE6F0E066
:1000A80085919591009761F0A591B591059015906E
:1000B800BF01F00105900D920197E1F7FB01F0CF28
:1000C800EFE5EDBFE4E0EEBFC0E6D1E00C942B0114
:1000D800A881E0E20E94D9010E2EE8E40E94D9012D
:1000E800E02909F038D0E88121960895E0E2E0B9E6
:1000F800EFEFE3B9E4E0E6BF0895E6B7E1700895ED
:100108000E948100E030E1F7E0917A0108951A93A6
:100118000E948100E030E1F7E981E0937901AA814A
:10012800BB81EC91E0936001E17089F411E0E98111
:100138001E1768F40E94A3010F01AA81BB81EE2754
:10014800A10FBE1FEC91D001EC931F5FF0CF0E946E
:10015800A80118811FC00E948100E030E1F70E94C9
:10016800A80108951A930E948100E030E1F7552014
:1001780079F010E0E9811E1758F4AA81BB81EE27B7
:10018800A10FBE1F0E94A301E081EC931F5FF2CF75
:10019800E52D188124960895AA93BA93EA93FA93C1
:1001A800EFB7EA93E1B1E83011F0E03111F47724C8
:1001B80002C0E83109F402C0E83279F4E09179012B
:1001C8007E1630F40E94AF01E081E3B9E5E803C090
:1001D800E1E05E2EE4E9E6BF33C0E03531F40E9489
:1001E800AF01DF01E3B1EC9302C0E03451F4E091D8
:1001F8007901E1507E1610F4E5EC01C0E5E8E6BFB0
:100208001FC0E83551F4A72DB0E0A05ABE4FE3B1A6
:10021800EC93E1E05E2EE4E912C0E83311F4E5EA7C
:100228000EC0E03211F0E83409F402C0E03309F4FA
:1002380002C0E03001F4E1B1E0937A01E4E0E6BF06
:10024800E991EFBFF991E991B991A991189524978E
:1002580011E020E030E050E0E0E0E7BBE1BB0E94C5
:100268007A00789411E000E2E4E6F0E0FA93EA9389
:100278000E94CD01E22FE03041F4E02FEE0FE88339
:10028800EFEF0E94B50122E02BC0E13031F4E0E24B
:10029800E883E0E10E94BF0123C0E23041F4E02F8F
:1002A800EE0FE883EEEF0E94B50120E019C0E330BD
:1002B80041F4E02FEE0FE883E0E20E94BF0132E054
:1002C80002C0E43019F40E94840009C0E53019F432
:1002D8005F5F58BB05C0E63019F4E0E05E2FE8BB6D
:1002E8000E948100E030F9F45520C1F03030A9F0C7
:1002F800323051F4E02FEE0FE160E8830E94C7012D
:100308000E948B0033E009C0333039F40E94C701E2
:100318000E94B600E981E8BB30E005C00E94840075
:10032800EA930E946C00A0CFFFCF5F9BFECFECB199
:1003380008955D9BFECFE881ECB921960895E12FE1
:10034800F0E0E05AFE4F08954424E8EFE0937A0184
:10035800E5EAE6BF0895E72D7394F0E0E05AFE4F12
:100368000895E983EFEFEA83FE01FA93EA93E3E065
:10037800EA930C948B00E983FE01FA93EA93E2E096
:10038800EA930C948B00FE01FA93EA93E2E0EA9375
:100398000895E991F991309639F080ED97E0019749
:1003A800F1F7A8953197C9F70895EA17E1E009F040
:1003B800EE2708955A934A933A932A931A930A93E5
:1003C80008955D814C813B812A81198108810895B6
:00000001FF
